{
  "contractName": "SpecialDelegate",
  "abi": [
    {
      "inputs": [
        {
          "internalType": "uint256",
          "name": "_totalSupply",
          "type": "uint256"
        }
      ],
      "stateMutability": "nonpayable",
      "type": "constructor"
    },
    {
      "anonymous": false,
      "inputs": [
        {
          "indexed": true,
          "internalType": "address",
          "name": "owner",
          "type": "address"
        },
        {
          "indexed": true,
          "internalType": "address",
          "name": "spender",
          "type": "address"
        },
        {
          "indexed": false,
          "internalType": "uint256",
          "name": "value",
          "type": "uint256"
        }
      ],
      "name": "Approval",
      "type": "event"
    },
    {
      "anonymous": false,
      "inputs": [
        {
          "indexed": true,
          "internalType": "uint256",
          "name": "totalSupply",
          "type": "uint256"
        },
        {
          "indexed": true,
          "internalType": "address",
          "name": "currentOwner",
          "type": "address"
        }
      ],
      "name": "DelegateTokensMinted",
      "type": "event"
    },
    {
      "anonymous": false,
      "inputs": [
        {
          "indexed": true,
          "internalType": "uint256",
          "name": "amountGiven",
          "type": "uint256"
        },
        {
          "indexed": true,
          "internalType": "address",
          "name": "sender",
          "type": "address"
        }
      ],
      "name": "DelegationGiven",
      "type": "event"
    },
    {
      "anonymous": false,
      "inputs": [
        {
          "indexed": true,
          "internalType": "uint256",
          "name": "errorCode",
          "type": "uint256"
        }
      ],
      "name": "Error",
      "type": "event"
    },
    {
      "anonymous": false,
      "inputs": [
        {
          "indexed": true,
          "internalType": "address",
          "name": "from",
          "type": "address"
        },
        {
          "indexed": true,
          "internalType": "address",
          "name": "to",
          "type": "address"
        },
        {
          "indexed": false,
          "internalType": "uint256",
          "name": "value",
          "type": "uint256"
        }
      ],
      "name": "Transfer",
      "type": "event"
    },
    {
      "inputs": [
        {
          "internalType": "address",
          "name": "owner",
          "type": "address"
        },
        {
          "internalType": "address",
          "name": "spender",
          "type": "address"
        }
      ],
      "name": "allowance",
      "outputs": [
        {
          "internalType": "uint256",
          "name": "",
          "type": "uint256"
        }
      ],
      "stateMutability": "view",
      "type": "function"
    },
    {
      "inputs": [
        {
          "internalType": "address",
          "name": "spender",
          "type": "address"
        },
        {
          "internalType": "uint256",
          "name": "amount",
          "type": "uint256"
        }
      ],
      "name": "approve",
      "outputs": [
        {
          "internalType": "bool",
          "name": "",
          "type": "bool"
        }
      ],
      "stateMutability": "nonpayable",
      "type": "function"
    },
    {
      "inputs": [
        {
          "internalType": "address",
          "name": "account",
          "type": "address"
        }
      ],
      "name": "balanceOf",
      "outputs": [
        {
          "internalType": "uint256",
          "name": "",
          "type": "uint256"
        }
      ],
      "stateMutability": "view",
      "type": "function"
    },
    {
      "inputs": [
        {
          "internalType": "address",
          "name": "",
          "type": "address"
        }
      ],
      "name": "daoMemberTokenAmounts",
      "outputs": [
        {
          "internalType": "uint256",
          "name": "",
          "type": "uint256"
        }
      ],
      "stateMutability": "view",
      "type": "function"
    },
    {
      "inputs": [
        {
          "internalType": "uint256",
          "name": "",
          "type": "uint256"
        }
      ],
      "name": "daoMembers",
      "outputs": [
        {
          "internalType": "address",
          "name": "",
          "type": "address"
        }
      ],
      "stateMutability": "view",
      "type": "function"
    },
    {
      "inputs": [],
      "name": "decimals",
      "outputs": [
        {
          "internalType": "uint8",
          "name": "",
          "type": "uint8"
        }
      ],
      "stateMutability": "view",
      "type": "function"
    },
    {
      "inputs": [
        {
          "internalType": "address",
          "name": "spender",
          "type": "address"
        },
        {
          "internalType": "uint256",
          "name": "subtractedValue",
          "type": "uint256"
        }
      ],
      "name": "decreaseAllowance",
      "outputs": [
        {
          "internalType": "bool",
          "name": "",
          "type": "bool"
        }
      ],
      "stateMutability": "nonpayable",
      "type": "function"
    },
    {
      "inputs": [
        {
          "internalType": "address",
          "name": "",
          "type": "address"
        }
      ],
      "name": "delegateAmounts",
      "outputs": [
        {
          "internalType": "uint256",
          "name": "",
          "type": "uint256"
        }
      ],
      "stateMutability": "view",
      "type": "function"
    },
    {
      "inputs": [
        {
          "internalType": "address",
          "name": "",
          "type": "address"
        }
      ],
      "name": "delegates",
      "outputs": [
        {
          "internalType": "uint256",
          "name": "tokensDelegated",
          "type": "uint256"
        },
        {
          "internalType": "uint256",
          "name": "timesVoted",
          "type": "uint256"
        },
        {
          "internalType": "bool",
          "name": "isActive",
          "type": "bool"
        },
        {
          "internalType": "address",
          "name": "_address",
          "type": "address"
        }
      ],
      "stateMutability": "view",
      "type": "function"
    },
    {
      "inputs": [
        {
          "internalType": "address",
          "name": "spender",
          "type": "address"
        },
        {
          "internalType": "uint256",
          "name": "addedValue",
          "type": "uint256"
        }
      ],
      "name": "increaseAllowance",
      "outputs": [
        {
          "internalType": "bool",
          "name": "",
          "type": "bool"
        }
      ],
      "stateMutability": "nonpayable",
      "type": "function"
    },
    {
      "inputs": [
        {
          "internalType": "address",
          "name": "",
          "type": "address"
        }
      ],
      "name": "isDelegate",
      "outputs": [
        {
          "internalType": "bool",
          "name": "",
          "type": "bool"
        }
      ],
      "stateMutability": "view",
      "type": "function"
    },
    {
      "inputs": [],
      "name": "name",
      "outputs": [
        {
          "internalType": "string",
          "name": "",
          "type": "string"
        }
      ],
      "stateMutability": "view",
      "type": "function"
    },
    {
      "inputs": [],
      "name": "symbol",
      "outputs": [
        {
          "internalType": "string",
          "name": "",
          "type": "string"
        }
      ],
      "stateMutability": "view",
      "type": "function"
    },
    {
      "inputs": [],
      "name": "totalSupply",
      "outputs": [
        {
          "internalType": "uint256",
          "name": "",
          "type": "uint256"
        }
      ],
      "stateMutability": "view",
      "type": "function"
    },
    {
      "inputs": [
        {
          "internalType": "address",
          "name": "recipient",
          "type": "address"
        },
        {
          "internalType": "uint256",
          "name": "amount",
          "type": "uint256"
        }
      ],
      "name": "transfer",
      "outputs": [
        {
          "internalType": "bool",
          "name": "",
          "type": "bool"
        }
      ],
      "stateMutability": "nonpayable",
      "type": "function"
    },
    {
      "inputs": [
        {
          "internalType": "address",
          "name": "sender",
          "type": "address"
        },
        {
          "internalType": "address",
          "name": "recipient",
          "type": "address"
        },
        {
          "internalType": "uint256",
          "name": "amount",
          "type": "uint256"
        }
      ],
      "name": "transferFrom",
      "outputs": [
        {
          "internalType": "bool",
          "name": "",
          "type": "bool"
        }
      ],
      "stateMutability": "nonpayable",
      "type": "function"
    },
    {
      "inputs": [
        {
          "internalType": "address payable",
          "name": "_delegate",
          "type": "address"
        },
        {
          "internalType": "uint256",
          "name": "_amount",
          "type": "uint256"
        }
      ],
      "name": "giveDelegation",
      "outputs": [],
      "stateMutability": "nonpayable",
      "type": "function"
    }
  ],
  "bytecode": "0x608060405260036005553480156200001657600080fd5b5060405162001f8f38038062001f8f83398181016040528101906200003c9190620003d4565b6040518060400160405280600f81526020017f5370656369616c44656c656761746500000000000000000000000000000000008152506040518060400160405280600381526020017f53504400000000000000000000000000000000000000000000000000000000008152508160039080519060200190620000c09291906200030d565b508060049080519060200190620000d99291906200030d565b505050620000ee33826200018a60201b60201c565b33600860006101000a81548173ffffffffffffffffffffffffffffffffffffffff021916908373ffffffffffffffffffffffffffffffffffffffff1602179055503373ffffffffffffffffffffffffffffffffffffffff16817f86296e75b8a2e747a6a9e88b3c82dff65a58303e3c98402ba75f9940e0d72e3c60405160405180910390a36000600781905550600060068190555050620005b8565b600073ffffffffffffffffffffffffffffffffffffffff168273ffffffffffffffffffffffffffffffffffffffff161415620001fd576040517f08c379a0000000000000000000000000000000000000000000000000000000008152600401620001f49062000453565b60405180910390fd5b62000211600083836200030360201b60201c565b8060026000828254620002259190620004a3565b92505081905550806000808473ffffffffffffffffffffffffffffffffffffffff1673ffffffffffffffffffffffffffffffffffffffff16815260200190815260200160002060008282546200027c9190620004a3565b925050819055508173ffffffffffffffffffffffffffffffffffffffff16600073ffffffffffffffffffffffffffffffffffffffff167fddf252ad1be2c89b69c2b068fc378daa952ba7f163c4a11628f55a4df523b3ef83604051620002e3919062000475565b60405180910390a3620002ff600083836200030860201b60201c565b5050565b505050565b505050565b8280546200031b906200050a565b90600052602060002090601f0160209004810192826200033f57600085556200038b565b82601f106200035a57805160ff19168380011785556200038b565b828001600101855582156200038b579182015b828111156200038a5782518255916020019190600101906200036d565b5b5090506200039a91906200039e565b5090565b5b80821115620003b95760008160009055506001016200039f565b5090565b600081519050620003ce816200059e565b92915050565b600060208284031215620003e757600080fd5b6000620003f784828501620003bd565b91505092915050565b60006200040f601f8362000492565b91507f45524332303a206d696e7420746f20746865207a65726f2061646472657373006000830152602082019050919050565b6200044d8162000500565b82525050565b600060208201905081810360008301526200046e8162000400565b9050919050565b60006020820190506200048c600083018462000442565b92915050565b600082825260208201905092915050565b6000620004b08262000500565b9150620004bd8362000500565b9250827fffffffffffffffffffffffffffffffffffffffffffffffffffffffffffffffff03821115620004f557620004f462000540565b5b828201905092915050565b6000819050919050565b600060028204905060018216806200052357607f821691505b602082108114156200053a57620005396200056f565b5b50919050565b7f4e487b7100000000000000000000000000000000000000000000000000000000600052601160045260246000fd5b7f4e487b7100000000000000000000000000000000000000000000000000000000600052602260045260246000fd5b620005a98162000500565b8114620005b557600080fd5b50565b6119c780620005c86000396000f3fe608060405234801561001057600080fd5b506004361061010b5760003560e01c8063587cde1e116100a257806398ffcbcf1161007157806398ffcbcf146102f75780639d51173f14610327578063a457c2d714610357578063a9059cbb14610387578063dd62ed3e146103b75761010b565b8063587cde1e1461024657806358dbdf131461027957806370a08231146102a957806395d89b41146102d95761010b565b806323b872dd116100de57806323b872dd146101ac578063313ce567146101dc57806338215d5c146101fa57806339509351146102165761010b565b806306fdde0314610110578063077796271461012e578063095ea7b31461015e57806318160ddd1461018e575b600080fd5b6101186103e7565b6040516101259190611617565b60405180910390f35b6101486004803603810190610143919061111e565b610479565b60405161015591906115fc565b60405180910390f35b6101786004803603810190610173919061120e565b610499565b60405161018591906115fc565b60405180910390f35b6101966104b7565b6040516101a39190611719565b60405180910390f35b6101c660048036038101906101c191906111bf565b6104c1565b6040516101d391906115fc565b60405180910390f35b6101e46105b9565b6040516101f19190611779565b60405180910390f35b610214600480360381019061020f9190611147565b6105c2565b005b610230600480360381019061022b919061120e565b6108ab565b60405161023d91906115fc565b60405180910390f35b610260600480360381019061025b919061111e565b610957565b6040516102709493929190611734565b60405180910390f35b610293600480360381019061028e919061111e565b6109b4565b6040516102a09190611719565b60405180910390f35b6102c360048036038101906102be919061111e565b6109cc565b6040516102d09190611719565b60405180910390f35b6102e1610a14565b6040516102ee9190611617565b60405180910390f35b610311600480360381019061030c919061111e565b610aa6565b60405161031e9190611719565b60405180910390f35b610341600480360381019061033c919061124a565b610abe565b60405161034e91906115e1565b60405180910390f35b610371600480360381019061036c919061120e565b610af1565b60405161037e91906115fc565b60405180910390f35b6103a1600480360381019061039c919061120e565b610bdc565b6040516103ae91906115fc565b60405180910390f35b6103d160048036038101906103cc9190611183565b610bfa565b6040516103de9190611719565b60405180910390f35b6060600380546103f6906118ab565b80601f0160208091040260200160405190810160405280929190818152602001828054610422906118ab565b801561046f5780601f106104445761010080835404028352916020019161046f565b820191906000526020600020905b81548152906001019060200180831161045257829003601f168201915b5050505050905090565b600c6020528060005260406000206000915054906101000a900460ff1681565b60006104ad6104a6610c81565b8484610c89565b6001905092915050565b6000600254905090565b60006104ce848484610e54565b6000600160008673ffffffffffffffffffffffffffffffffffffffff1673ffffffffffffffffffffffffffffffffffffffff1681526020019081526020016000206000610519610c81565b73ffffffffffffffffffffffffffffffffffffffff1673ffffffffffffffffffffffffffffffffffffffff16815260200190815260200160002054905082811015610599576040517f08c379a000000000000000000000000000000000000000000000000000000000815260040161059090611699565b60405180910390fd5b6105ad856105a5610c81565b858403610c89565b60019150509392505050565b60006012905090565b8080600a60003373ffffffffffffffffffffffffffffffffffffffff1673ffffffffffffffffffffffffffffffffffffffff16815260200190815260200160002054101561060f57600080fd5b600c60008473ffffffffffffffffffffffffffffffffffffffff1673ffffffffffffffffffffffffffffffffffffffff16815260200190815260200160002060009054906101000a900460ff161561075e576040518060800160405280838152602001600081526020016001151581526020018473ffffffffffffffffffffffffffffffffffffffff16815250600b60008573ffffffffffffffffffffffffffffffffffffffff1673ffffffffffffffffffffffffffffffffffffffff168152602001908152602001600020600082015181600001556020820151816001015560408201518160020160006101000a81548160ff02191690831515021790555060608201518160020160016101000a81548173ffffffffffffffffffffffffffffffffffffffff021916908373ffffffffffffffffffffffffffffffffffffffff1602179055509050506107b8565b81600b60008573ffffffffffffffffffffffffffffffffffffffff1673ffffffffffffffffffffffffffffffffffffffff16815260200190815260200160002060000160008282546107b091906117bb565b925050819055505b6000808473ffffffffffffffffffffffffffffffffffffffff16846040516107df906115cc565b60006040518083038185875af1925050503d806000811461081c576040519150601f19603f3d011682016040523d82523d6000602084013e610821565b606091505b50915091508115610875573373ffffffffffffffffffffffffffffffffffffffff16847fca0d26b12402795857a2f3063a980f3d14e48cfd47c721be1ceb210a8cd7317b60405160405180910390a36108a4565b60017f2e36a7093f25f22bd4cbdeb6040174c3ba4c5fe8f1abc04e7c3c48f26c7413e060405160405180910390a25b5050505050565b600061094d6108b8610c81565b8484600160006108c6610c81565b73ffffffffffffffffffffffffffffffffffffffff1673ffffffffffffffffffffffffffffffffffffffff16815260200190815260200160002060008873ffffffffffffffffffffffffffffffffffffffff1673ffffffffffffffffffffffffffffffffffffffff1681526020019081526020016000205461094891906117bb565b610c89565b6001905092915050565b600b6020528060005260406000206000915090508060000154908060010154908060020160009054906101000a900460ff16908060020160019054906101000a900473ffffffffffffffffffffffffffffffffffffffff16905084565b600d6020528060005260406000206000915090505481565b60008060008373ffffffffffffffffffffffffffffffffffffffff1673ffffffffffffffffffffffffffffffffffffffff168152602001908152602001600020549050919050565b606060048054610a23906118ab565b80601f0160208091040260200160405190810160405280929190818152602001828054610a4f906118ab565b8015610a9c5780601f10610a7157610100808354040283529160200191610a9c565b820191906000526020600020905b815481529060010190602001808311610a7f57829003601f168201915b5050505050905090565b600a6020528060005260406000206000915090505481565b60096020528060005260406000206000915054906101000a900473ffffffffffffffffffffffffffffffffffffffff1681565b60008060016000610b00610c81565b73ffffffffffffffffffffffffffffffffffffffff1673ffffffffffffffffffffffffffffffffffffffff16815260200190815260200160002060008573ffffffffffffffffffffffffffffffffffffffff1673ffffffffffffffffffffffffffffffffffffffff16815260200190815260200160002054905082811015610bbd576040517f08c379a0000000000000000000000000000000000000000000000000000000008152600401610bb4906116f9565b60405180910390fd5b610bd1610bc8610c81565b85858403610c89565b600191505092915050565b6000610bf0610be9610c81565b8484610e54565b6001905092915050565b6000600160008473ffffffffffffffffffffffffffffffffffffffff1673ffffffffffffffffffffffffffffffffffffffff16815260200190815260200160002060008373ffffffffffffffffffffffffffffffffffffffff1673ffffffffffffffffffffffffffffffffffffffff16815260200190815260200160002054905092915050565b600033905090565b600073ffffffffffffffffffffffffffffffffffffffff168373ffffffffffffffffffffffffffffffffffffffff161415610cf9576040517f08c379a0000000000000000000000000000000000000000000000000000000008152600401610cf0906116d9565b60405180910390fd5b600073ffffffffffffffffffffffffffffffffffffffff168273ffffffffffffffffffffffffffffffffffffffff161415610d69576040517f08c379a0000000000000000000000000000000000000000000000000000000008152600401610d6090611659565b60405180910390fd5b80600160008573ffffffffffffffffffffffffffffffffffffffff1673ffffffffffffffffffffffffffffffffffffffff16815260200190815260200160002060008473ffffffffffffffffffffffffffffffffffffffff1673ffffffffffffffffffffffffffffffffffffffff168152602001908152602001600020819055508173ffffffffffffffffffffffffffffffffffffffff168373ffffffffffffffffffffffffffffffffffffffff167f8c5be1e5ebec7d5bd14f71427d1e84f3dd0314c0f7b2291e5b200ac8c7c3b92583604051610e479190611719565b60405180910390a3505050565b600073ffffffffffffffffffffffffffffffffffffffff168373ffffffffffffffffffffffffffffffffffffffff161415610ec4576040517f08c379a0000000000000000000000000000000000000000000000000000000008152600401610ebb906116b9565b60405180910390fd5b600073ffffffffffffffffffffffffffffffffffffffff168273ffffffffffffffffffffffffffffffffffffffff161415610f34576040517f08c379a0000000000000000000000000000000000000000000000000000000008152600401610f2b90611639565b60405180910390fd5b610f3f8383836110d5565b60008060008573ffffffffffffffffffffffffffffffffffffffff1673ffffffffffffffffffffffffffffffffffffffff16815260200190815260200160002054905081811015610fc5576040517f08c379a0000000000000000000000000000000000000000000000000000000008152600401610fbc90611679565b60405180910390fd5b8181036000808673ffffffffffffffffffffffffffffffffffffffff1673ffffffffffffffffffffffffffffffffffffffff16815260200190815260200160002081905550816000808573ffffffffffffffffffffffffffffffffffffffff1673ffffffffffffffffffffffffffffffffffffffff168152602001908152602001600020600082825461105891906117bb565b925050819055508273ffffffffffffffffffffffffffffffffffffffff168473ffffffffffffffffffffffffffffffffffffffff167fddf252ad1be2c89b69c2b068fc378daa952ba7f163c4a11628f55a4df523b3ef846040516110bc9190611719565b60405180910390a36110cf8484846110da565b50505050565b505050565b505050565b6000813590506110ee8161194c565b92915050565b60008135905061110381611963565b92915050565b6000813590506111188161197a565b92915050565b60006020828403121561113057600080fd5b600061113e848285016110df565b91505092915050565b6000806040838503121561115a57600080fd5b6000611168858286016110f4565b925050602061117985828601611109565b9150509250929050565b6000806040838503121561119657600080fd5b60006111a4858286016110df565b92505060206111b5858286016110df565b9150509250929050565b6000806000606084860312156111d457600080fd5b60006111e2868287016110df565b93505060206111f3868287016110df565b925050604061120486828701611109565b9150509250925092565b6000806040838503121561122157600080fd5b600061122f858286016110df565b925050602061124085828601611109565b9150509250929050565b60006020828403121561125c57600080fd5b600061126a84828501611109565b91505092915050565b61127c81611811565b82525050565b61128b81611835565b82525050565b600061129c82611794565b6112a681856117aa565b93506112b6818560208601611878565b6112bf8161193b565b840191505092915050565b60006112d76023836117aa565b91507f45524332303a207472616e7366657220746f20746865207a65726f206164647260008301527f65737300000000000000000000000000000000000000000000000000000000006020830152604082019050919050565b600061133d6022836117aa565b91507f45524332303a20617070726f766520746f20746865207a65726f20616464726560008301527f73730000000000000000000000000000000000000000000000000000000000006020830152604082019050919050565b60006113a36026836117aa565b91507f45524332303a207472616e7366657220616d6f756e742065786365656473206260008301527f616c616e636500000000000000000000000000000000000000000000000000006020830152604082019050919050565b60006114096028836117aa565b91507f45524332303a207472616e7366657220616d6f756e742065786365656473206160008301527f6c6c6f77616e63650000000000000000000000000000000000000000000000006020830152604082019050919050565b600061146f6025836117aa565b91507f45524332303a207472616e736665722066726f6d20746865207a65726f20616460008301527f64726573730000000000000000000000000000000000000000000000000000006020830152604082019050919050565b60006114d560008361179f565b9150600082019050919050565b60006114ef6024836117aa565b91507f45524332303a20617070726f76652066726f6d20746865207a65726f2061646460008301527f72657373000000000000000000000000000000000000000000000000000000006020830152604082019050919050565b60006115556025836117aa565b91507f45524332303a2064656372656173656420616c6c6f77616e63652062656c6f7760008301527f207a65726f0000000000000000000000000000000000000000000000000000006020830152604082019050919050565b6115b781611861565b82525050565b6115c68161186b565b82525050565b60006115d7826114c8565b9150819050919050565b60006020820190506115f66000830184611273565b92915050565b60006020820190506116116000830184611282565b92915050565b600060208201905081810360008301526116318184611291565b905092915050565b60006020820190508181036000830152611652816112ca565b9050919050565b6000602082019050818103600083015261167281611330565b9050919050565b6000602082019050818103600083015261169281611396565b9050919050565b600060208201905081810360008301526116b2816113fc565b9050919050565b600060208201905081810360008301526116d281611462565b9050919050565b600060208201905081810360008301526116f2816114e2565b9050919050565b6000602082019050818103600083015261171281611548565b9050919050565b600060208201905061172e60008301846115ae565b92915050565b600060808201905061174960008301876115ae565b61175660208301866115ae565b6117636040830185611282565b6117706060830184611273565b95945050505050565b600060208201905061178e60008301846115bd565b92915050565b600081519050919050565b600081905092915050565b600082825260208201905092915050565b60006117c682611861565b91506117d183611861565b9250827fffffffffffffffffffffffffffffffffffffffffffffffffffffffffffffffff03821115611806576118056118dd565b5b828201905092915050565b600061181c82611841565b9050919050565b600061182e82611841565b9050919050565b60008115159050919050565b600073ffffffffffffffffffffffffffffffffffffffff82169050919050565b6000819050919050565b600060ff82169050919050565b60005b8381101561189657808201518184015260208101905061187b565b838111156118a5576000848401525b50505050565b600060028204905060018216806118c357607f821691505b602082108114156118d7576118d661190c565b5b50919050565b7f4e487b7100000000000000000000000000000000000000000000000000000000600052601160045260246000fd5b7f4e487b7100000000000000000000000000000000000000000000000000000000600052602260045260246000fd5b6000601f19601f8301169050919050565b61195581611811565b811461196057600080fd5b50565b61196c81611823565b811461197757600080fd5b50565b61198381611861565b811461198e57600080fd5b5056fea2646970667358221220b71407f9c1a88ad91a2961ffe0d1a5fcde01b254bf535dfa321b7461f2ae0ce664736f6c63430008000033",
  "immutableReferences": {},
  "source": "pragma solidity 0.8.0;\nimport \"@openzeppelin/contracts/token/ERC20/ERC20.sol\";\n\ncontract SpecialDelegate is ERC20 {\n/* --------- STORAGE --------- */\n/*\nERROR CODES:\n1 -> DelegationGiven Failed\n2 -> SendTokensBack Failed\n/*\n\n\n/* --------- STORAGE --------- */\n    uint256 minimumThreshold = 3;\n    uint256 selfVoteCount;\n    uint256 totalVoteCount;\n    address currOwner;\n\n\n    mapping(uint256 => address) public daoMembers;\n    mapping(address => uint256) public daoMemberTokenAmounts;\n\n\n    mapping(address => Delegate) public delegates;\n    mapping(address => bool) public isDelegate;\n\n    mapping(address => uint256) public delegateAmounts; // to keep track of the amount of delegation tokens each delegate has\n\n/* --------- STRUCTS --------- */\n//\n    struct DAOMember {\n        Delegate delegate;\n        uint256 tokenAmount;\n        address _address;\n    }\n\n    struct Delegate {\n        uint256 tokensDelegated; // number of tokens delegated with the DAO member that delegated that amount as the key\n        uint256 timesVoted;\n        bool isActive;\n        address _address;\n    }\n\n/* --------- EVENTS --------- */\n\n    event DelegateTokensMinted( uint256 indexed totalSupply,  address indexed currentOwner);\n    event DelegationGiven(uint256 indexed amountGiven, address indexed sender);\n    event Error(uint256 indexed errorCode);\n\n/* --------- MODIFIERS --------- */\n    modifier delegateOnly(address caller) {\n        require(delegates[caller].isActive, \"NOT A DELEGATOR\");\n        _;\n    }\n    modifier hasEnoughTokens(uint256 amount) {\n        require(daoMemberTokenAmounts[msg.sender] >= amount);\n        _;\n    }\n\n    modifier voteLimitReached() {\n        require(selfVoteCount >= totalVoteCount);\n        _;\n    }\n    constructor(uint256 _totalSupply) ERC20(\"SpecialDelegate\", \"SPD\") {\n        _mint(msg.sender, _totalSupply);\n        currOwner = msg.sender;\n        emit DelegateTokensMinted(_totalSupply, msg.sender);\n        totalVoteCount = 0;\n        selfVoteCount = 0;\n    }\n\n\n/* --------- FUNCTIONS --------- */\n\n\n    // DAO member can give tokens to delegate to allow them to vote\n    function giveDelegation(address payable _delegate, uint256 _amount) external hasEnoughTokens(_amount) {\n        if (isDelegate[_delegate]) {\n        delegates[_delegate] =  Delegate({\n            tokensDelegated: _amount, // number of tokens delegated with the DAO member that delegated that amount as the key\n            timesVoted: 0,\n            isActive: true,\n            _address: _delegate\n            });\n        } else {\n             delegates[_delegate].tokensDelegated += _amount;\n        }\n\n        (bool success, bytes memory data) = _delegate.call{value: _amount}(\"\");\n\n        if (success) {\n            emit DelegationGiven(_amount, msg.sender);\n        } else {\n            emit Error(1);\n        }\n\n    }\n\n\n\n    // Send tokens back from delegate to DAO member\n    function sendTokensBackToMember() private voteLimitReached {\n\n    }\n\n    // function transferDelegation(uint256 amount, address _to) public {\n    //     require(msg.sender == currOwner, \"Only the owner of these tokens can make this call\");\n    //     uint256 prevAmount = ownerAmounts[msg.sender];\n    //     ownerAmounts[msg.sender] = prevAmount - amount;\n    //     transferFrom(msg.sender, _to,amount);\n\n    // }\n\n    // function updateVotes(bool didVote) public {\n    //     // require(<maloch contract address will go here>);\n    //     if (didVote) {\n    //         selfVoteCount += 1;\n    //     }\n    //     totalVoteCount += 1;\n    //     checkIfShouldReturn();\n    // }\n    // function checkIfShouldReturn()  internal {\n    //     int voteRatio = int(selfVoteCount - totalVoteCount);\n    //     if (voteRatio < minimumThreshold) {\n    //         transferFrom(address(this), address(0xd9145CCE52D386f254917e481eB44e9943F39138) ,address(this).balance);\n    //     }\n    // }\n\n    /**\n    @dev Not sure if thiese functions are needed yet\n                    |\n                    |\n                    V\n\n    function voteForMembers() external isDelegate(msg.sender) {\n\n    }\n\n   function mint(address to, uint256 amount) external {\n        _mint(to, amount);\n    }\n\n*/\n}",
  "sourcePath": "/Users/michaeldaigler/Documents/Consensys-Academy/BlockchainDevBootcamp/final-project/blockchain-developer-bootcamp-final-project/contracts/SpecialDelegate.sol",
  "compiler": {
    "name": "solc",
    "version": "0.8.0+commit.c7dfd78e.Emscripten.clang"
  },
  "schemaVersion": "3.4.3",
  "updatedAt": "2021-09-21T02:49:35.471Z",
  "devdoc": {
    "kind": "dev",
    "methods": {
      "allowance(address,address)": {
        "details": "See {IERC20-allowance}."
      },
      "approve(address,uint256)": {
        "details": "See {IERC20-approve}. Requirements: - `spender` cannot be the zero address."
      },
      "balanceOf(address)": {
        "details": "See {IERC20-balanceOf}."
      },
      "decimals()": {
        "details": "Returns the number of decimals used to get its user representation. For example, if `decimals` equals `2`, a balance of `505` tokens should be displayed to a user as `5.05` (`505 / 10 ** 2`). Tokens usually opt for a value of 18, imitating the relationship between Ether and Wei. This is the value {ERC20} uses, unless this function is overridden; NOTE: This information is only used for _display_ purposes: it in no way affects any of the arithmetic of the contract, including {IERC20-balanceOf} and {IERC20-transfer}."
      },
      "decreaseAllowance(address,uint256)": {
        "details": "Atomically decreases the allowance granted to `spender` by the caller. This is an alternative to {approve} that can be used as a mitigation for problems described in {IERC20-approve}. Emits an {Approval} event indicating the updated allowance. Requirements: - `spender` cannot be the zero address. - `spender` must have allowance for the caller of at least `subtractedValue`."
      },
      "increaseAllowance(address,uint256)": {
        "details": "Atomically increases the allowance granted to `spender` by the caller. This is an alternative to {approve} that can be used as a mitigation for problems described in {IERC20-approve}. Emits an {Approval} event indicating the updated allowance. Requirements: - `spender` cannot be the zero address."
      },
      "name()": {
        "details": "Returns the name of the token."
      },
      "symbol()": {
        "details": "Returns the symbol of the token, usually a shorter version of the name."
      },
      "totalSupply()": {
        "details": "See {IERC20-totalSupply}."
      },
      "transfer(address,uint256)": {
        "details": "See {IERC20-transfer}. Requirements: - `recipient` cannot be the zero address. - the caller must have a balance of at least `amount`."
      },
      "transferFrom(address,address,uint256)": {
        "details": "See {IERC20-transferFrom}. Emits an {Approval} event indicating the updated allowance. This is not required by the EIP. See the note at the beginning of {ERC20}. Requirements: - `sender` and `recipient` cannot be the zero address. - `sender` must have a balance of at least `amount`. - the caller must have allowance for ``sender``'s tokens of at least `amount`."
      }
    },
    "version": 1
  },
  "userdoc": {
    "kind": "user",
    "methods": {},
    "version": 1
  }
}